:020000040000fa
:080000000002040000000000f2
:020000040000fa
:04000800740300007d
:020000040000fa
:04000c007403000079
:020000040000fa
:040010007403000075
:020000040000fa
:040014007403000071
:020000040000fa
:04001800740300006d
:020000040000fa
:04001c007403000069
:020000040000fa
:040020007403000065
:020000040000fa
:040024007403000061
:020000040000fa
:04002800740300005d
:020000040000fa
:04002c007403000059
:020000040000fa
:040030007403000055
:020000040000fa
:040034007403000051
:020000040000fa
:04003800c8020000fa
:020000040000fa
:04003c007403000049
:020000040000fa
:040040007403000045
:020000040000fa
:040044007403000041
:020000040000fa
:04004800740300003d
:020000040000fa
:04004c007403000039
:020000040000fa
:040050004e0300005b
:020000040000fa
:040054007403000031
:020000040000fa
:04005800740300002d
:020000040000fa
:04005c007403000029
:020000040000fa
:04006000e4020000b6
:020000040000fa
:040064007403000021
:020000040000fa
:04006800740300001d
:020000040000fa
:04006c007403000019
:020000040000fa
:040070007403000015
:020000040000fa
:040074007403000011
:020000040000fa
:04007800740300000d
:020000040000fa
:04007c007403000009
:020000040000fa
:040080007403000005
:020000040000fa
:040084007403000001
:020000040000fa
:0400880074030000fd
:020000040000fa
:04008c0074030000f9
:020000040000fa
:0400900074030000f5
:020000040000fa
:0400940094130000c1
:020000040000fa
:0400980074030000ed
:020000040000fa
:04009c0074030000e9
:020000040000fa
:0400a00074030000e5
:020000040000fa
:0400a40074030000e1
:020000040000fa
:0400a80074030000dd
:020000040000fa
:0400ac0074030000d9
:020000040000fa
:0400b00074030000d5
:020000040000fa
:0400b40074030000d1
:020000040000fa
:0400b80074030000cd
:020000040000fa
:0400bc0074030000c9
:020000040000fa
:0400c00074030000c5
:020000040000fa
:0400c40074030000c1
:020000040000fa
:0400c80074030000bd
:020000040000fa
:0400cc0074030000b9
:020000040000fa
:0400d00074030000b5
:020000040000fa
:0400d40074030000b1
:020000040000fa
:0400d80074030000ad
:020000040000fa
:0400dc0074030000a9
:020000040000fa
:0400e00074030000a5
:020000040000fa
:0400e40074030000a1
:020000040000fa
:0400e800740300009d
:020000040000fa
:0400ec007403000099
:020000040000fa
:0400f0007403000095
:020000040000fa
:0400f4007403000091
:020000040000fa
:0400f800740300008d
:020000040000fa
:0400fc007403000089
:020000040000fa
:040100007403000084
:020000040000fa
:040104007403000080
:020000040000fa
:04010800740300007c
:020000040000fa
:04010c007403000078
:020000040000fa
:040110007403000074
:020000040000fa
:040114007403000070
:020000040000fa
:04011800740300006c
:020000040000fa
:04011c007403000068
:020000040000fa
:040120007403000064
:020000040000fa
:040124007403000060
:020000040000fa
:04012800740300005c
:020000040000fa
:04012c007403000058
:020000040000fa
:040130007403000054
:020000040000fa
:040134007403000050
:020000040000fa
:04013800740300004c
:020000040000fa
:04013c007403000048
:020000040000fa
:040140007403000044
:020000040000fa
:04020800740300007b
:020000040000fa
:04020c007403000077
:020000040000fa
:040210007403000073
:020000040000fa
:04021400740300006f
:020000040000fa
:04021800740300006b
:020000040000fa
:04021c007403000067
:020000040000fa
:040220007403000063
:020000040000fa
:04022400740300005f
:020000040000fa
:04022800740300005b
:020000040000fa
:04022c007403000057
:020000040000fa
:040230007403000053
:020000040000fa
:04023400740300004f
:020000040000fa
:04023800c8020000f8
:020000040000fa
:04023c007403000047
:020000040000fa
:040240007403000043
:020000040000fa
:04024400740300003f
:020000040000fa
:04024800740300003b
:020000040000fa
:04024c007403000037
:020000040000fa
:040250004e03000059
:020000040000fa
:04025400740300002f
:020000040000fa
:04025800740300002b
:020000040000fa
:04025c007403000027
:020000040000fa
:04026000e4020000b4
:020000040000fa
:04026400740300001f
:020000040000fa
:04026800740300001b
:020000040000fa
:04026c007403000017
:020000040000fa
:040270007403000013
:020000040000fa
:04027400740300000f
:020000040000fa
:04027800740300000b
:020000040000fa
:04027c007403000007
:020000040000fa
:040280007403000003
:020000040000fa
:0402840074030000ff
:020000040000fa
:0402880074030000fb
:020000040000fa
:04028c0074030000f7
:020000040000fa
:0402900074030000f3
:020000040000fa
:0402940094130000bf
:020000040000fa
:0402980074030000eb
:020000040000fa
:04029c0074030000e7
:020000040000fa
:0402a00074030000e3
:020000040000fa
:0402a40074030000df
:020000040000fa
:0402a80074030000db
:020000040000fa
:0402ac0074030000d7
:020000040000fa
:0402b00074030000d3
:020000040000fa
:0402b40074030000cf
:020000040000fa
:0402b80074030000cb
:020000040000fa
:0402bc0074030000c7
:020000040000fa
:0402c00074030000c3
:020000040000fa
:0402c40074030000bf
:020000040000fa
:0402c80074030000bb
:020000040000fa
:0402cc0074030000b7
:020000040000fa
:0402d00074030000b3
:020000040000fa
:0402d40074030000af
:020000040000fa
:0402d80074030000ab
:020000040000fa
:0402dc0074030000a7
:020000040000fa
:0402e00074030000a3
:020000040000fa
:0402e400740300009f
:020000040000fa
:0402e800740300009b
:020000040000fa
:0402ec007403000097
:020000040000fa
:0402f0007403000093
:020000040000fa
:0402f400740300008f
:020000040000fa
:0402f800740300008b
:020000040000fa
:0402fc007403000087
:020000040000fa
:040300007403000082
:020000040000fa
:04030400740300007e
:020000040000fa
:04030800740300007a
:020000040000fa
:04030c007403000076
:020000040000fa
:040310007403000072
:020000040000fa
:04031400740300006e
:020000040000fa
:04031800740300006a
:020000040000fa
:04031c007403000066
:020000040000fa
:040320007403000062
:020000040000fa
:04032400740300005e
:020000040000fa
:04032800740300005a
:020000040000fa
:04032c007403000056
:020000040000fa
:040330007403000052
:020000040000fa
:04033400740300004e
:020000040000fa
:04033800740300004a
:020000040000fa
:04033c007403000046
:020000040000fa
:040340007403000042
:020000040000fa
:10040000efd120000e0f24000e0188000000000034
:10041000000020000000e000020032000001200087
:100420002002880014000700b10007000000e0006f
:1004300003003a0000b9210001002000020037004b
:100440000000200001002000810f70000100320038
:1004500014000700000020000000e000020032004d
:100460000000020000000000d6150200000000009d
:100470000040da000000fe004440a90000252000f2
:100480000000e0000300320000002000a00188000e
:100490004440a800000006008a1f78008b1f7800e7
:1004a0000000060091018800800478000000eb0045
:1004b0001a003700e284440032a0b4009905ba0063
:1004c000e284440032a0b4009906ba00e2844400f9
:1004d00032a0b4000006eb00476fde00fd07b2005b
:1004e000636ce10003003a00ebff07000000eb0043
:1004f0000a003700606ce10004003a00005deb0088
:100500008b05e900fdff3e00040037006168e10053
:10051000010032000086eb000b00070019c7ba008b
:100520001905ba000e04e00003003a000a00e000da
:10053000e0ff3a0000000600fe07b2009e018800be
:100540008a047800f5ff3700395dba008b05e900b1
:100550000c003200295dba008b05e900080032006a
:100560000c00e00003003a00e284440032a0b40032
:10057000f5ff370019ddba008b05e900faff3a00f4
:100580008904e800e184440032a0b40000000600c1
:10059000809fbe000000fa008480a90050418000c6
:1005a00051418000a10090000100a20021009800ac
:1005b000504180008000eb00310098000080fa007c
:1005c0004f00be0000400600809fbe000000fa0001
:1005d00085c0a90070418000e00090008100e80023
:1005e0006100980070418000e00090007041800040
:1005f00040009000808f500021003a007041800040
:100600008000eb0061009800704180007141800023
:10061000a10090000100a20021009800704180001c
:100620008000eb00310098007041800020009000b5
:10063000e10f500007003a00704180001000900068
:10064000800078000000240000805000801c88009a
:1006500006003700704180001000780080007800ac
:100660000000240000805000801c88007041800041
:1006700071418000d10090004100980003003700d4
:10068000801c80000080e800801c88008de3a800aa
:100690000080fa004f00be00004006003600f8005f
:1006a000809fbe00829fbe00849fbe00869fbe00ca
:1006b0000000fa0040418000e10f500002003a00c3
:1006c000dc070700010037004b0607000080fa0036
:1006d0004f03be004f02be004f01be004f00be00e0
:1006e0003600f900004006000040da000000fe007d
:1006f00000000500839f68000100e00002003d004b
:1007000060001000e08018000300e00002003d00df
:1007100060011100e08119003e0007004f00e00079
:1007200002003b0060001000e0801800000006009e
:100730000001be00220007000470a70003f0a10022
:100740006509b100160032000d0035006828e1008f
:1007500006003500f0ff2f00f1ff27000300e00046
:1007600013003b00010028000000050000004000cd
:10077000818048008502e900fcff3a00080037004c
:10078000f88f420002003c008000eb0000000500f2
:100790008100d1000080d3008502e800fcff3a0010
:1007a0000300e00002003b0060001000e080180041
:1007b000000006004f89de00820178001502370034
:1007c000c70ade00f107b200f50fb20008003200e0
:1007d000e1cf4200020032000170a00024000500b9
:1007e000810f70000100320004080500440005007c
:1007f000810f700002003a00140005008502e90034
:100800000000400081c04800fcff3b000170a000d8
:10081000240005006022b800060220000000d0007d
:100820008180d2000482d2008582d2000000a00024
:100830000202520083825a00030031000202420089
:1008400083824a000000a1000603e900f3ff3a009a
:100850000000060007f82700078361000638e10062
:1008600004003a00f70720008783610087037100c6
:1008700001003a0003f0a200889fbe008a9fbe00dc
:100880008c9fbe00470ade000480a100c71ade006c
:100890000580a100070028000785600087856100aa
:1008a000f70f20000720e1009e0032000728e1003a
:1008b0009c003200010678000400e000b400320021
:1008c000f7072000878060000170a0000500e000ad
:1008d000c0003200f7072000878161000370a0008c
:1008e000050652000f003a000b50e1000b003200e9
:1008f0000308e10002003a000200e1007e0032003d
:100900000204500083845800040031000001fd00ff
:100910008101fd008402fd008a05fd006044b800ed
:10092000210037000520e10005003d000001fd0029
:100930008101fd008402fd008a05fd0005065200cc
:100940007a60e100050035000170a1004722dd005a
:10095000848070008a807000630037006044b800b3
:10096000ef02660007ff2f00070666000500e000a3
:1009700006003400f08312008714dd000511de004c
:10098000071bdd00060171008519de007060e100c3
:10099000050035000904780082047800030178001e
:1009a0008001eb00700656000b50e10003003a0096
:1009b00002004000838048000400370060041400f7
:1009c000e0841c0002005800838058000188a300c6
:1009d000060032008100d1000080d3008984d3005a
:1009e0000884d3000402e800270037000178a30040
:1009f00025003a000100e000030032008186cf00ac
:100a0000698656000a0037008c0020000000e000d4
:100a100004003a0009007800880478000004eb0024
:100a2000700252008086cf000d0646000c06e900d9
:100a30007060e10006003500800078000900780051
:100a4000880478000004eb00700656007002520023
:100a50000c00e0000c0034008c08dd00f0031600f0
:100a60000703de00868070000c00dd00074bde000f
:100a7000060070008c4cdd000743de0086847400a5
:100a80000c44dd000c0252006120e1002000350022
:100a9000610160000700280087816400f7ff2700dc
:100aa00087836400070374000300e000060032003f
:100ab00082037300040032000000e800e080480078
:100ac0000188a3000e003a00f70f20000720e10084
:100ad0004a003d000170a1004722dd008100720044
:100ae0008a8070000000be004f06be004f05be00a9
:100af0004f04be00000006006000b800faff370097
:100b00008100d1000080d3000402e800eeff37002e
:100b10000401780089017400c20007008a80700017
:100b2000f1ff370018010700070278000001fd00ff
:100b30008101fd001401070087027800850372001f
:100b40000778a300040032000001fd008101fd00d0
:100b500027010700e4ff3700850362000768a30050
:100b6000080032000b50e10003003200f0ff2f00bc
:100b7000f1ff2700dcff37000001fd008101fd00cf
:100b8000d9ff37000468a300d7ff3200faff37000f
:100b9000f8ff2700888360000b003a000000e000a7
:100ba00009003a008303640082837300020032006c
:100bb0000200be00ccff37000b50e100ceff3a0030
:100bc0000200be00c8ff370014002000810064004e
:100bd0003eff3700f8ff27008883610004003a00d9
:100be0000200e00002003a008c007800beff3700ef
:100bf000150020008301640039ff370001f8270049
:100c00000000200081007500b7ff370003836800f3
:100c10000700280007036300470ade000480a100e4
:100c2000c71ade000580a100f70f20000720e100b1
:100c3000420032000728e10040003200889fbe00d9
:100c40008a9fbe008c1f7800f107b200f307b20044
:100c50000400e000640032000170a0000500e00024
:100c6000680032000370a00085054200eb07b10068
:100c70000204b8000302b8008484440060854a007e
:100c8000020ab800848444000a854a00030ab800b6
:100c900004054500040033000804d0008984d20014
:100ca0000a85d2008b05e9006158e1003d0035005e
:100cb0000210200009016100030820008981610001
:100cc000f70720008783640008867300c84cde00a5
:100cd000c853dd00878474004855de000300e0003f
:100ce0000600320082037600040032008904e80026
:100cf00060054d000a88a3000c003a00f70f2000a1
:100d00000758e10044003d000a70a100c75ddd0006
:100d10000a8575008a007300090078004f06780084
:100d20004f05be004f04be00000006000a05d100ba
:100d30008984d3008b05e800f0ff3700881f780016
:100d40000604780090000700070278000001fd000b
:100d50008101fd008c000700870278008503720086
:100d60000778a300050032000001fd008101fd00ad
:100d70009f0007004f047800000006008503720002
:100d80000748a30003003200f0ff2f00f1ff270007
:100d9000f8ff37000000200001f82700888070006d
:100da000f4ff3700880178004848dd008081710039
:100db0004848de00c850dd0001007000c850de0069
:100dc000060478000b017800160007008880700088
:100dd000d2ff37000500e0000500320017002000b8
:100de0003a0007009dff370081037000f9ff3a00c9
:100df000860078004f0678004f05be004f04be0005
:100e00000000050083037100f9ff32002700200075
:100e10002e00070094ff370001f82700868070003d
:100e2000f4ff37000100e0002600320061011100ec
:100e30007810e10023003c006022b8007010e1004f
:100e40000400350080027800010078008000eb008b
:100e5000700151000200e00009003400700311002d
:100e6000062add00822ade008603dd00878272000a
:100e70000200de00860bdd00070070008208de0045
:100e800084817100f4ff2700048262008481710074
:100e900004002800848262006102600005f0a60060
:100ea0000000060004827100070032000000e80024
:100eb000e0804800000006000002be006000b800ac
:100ec000efff37006000b80000000600889fbe00fa
:100ed0000004eb006138e10016003a000100e00078
:100ee00008003a00c800de004800dd00880020004d
:100ef0000100e00003003a00c800de004800dd0009
:100f0000680444008184cf00e98454000600340062
:100f10008908dd00f08314008703de0087807000fd
:100f20000900dd0009044400610214004f04be0002
:100f3000000006000300e00008003a00c811de00cf
:100f40004811dd00880020000300e00003003a00a3
:100f5000c811de004811dd00680444008384cf001e
:100f6000e9845400060034008919dd00f083140080
:100f70008713de00878171000911dd000904440038
:100f8000e1021400e9ff37002700200001f0a7006c
:100f900017002000470bde00f60fb20004003200fd
:100fa0000643e8000a0032004702b30000000600d2
:100fb00001037800f607b2000603700002003a0051
:100fc0000703b300000006008702b300000006001c
:100fd00001037800f607b200060370000200320039
:100fe0000770a000000006000760a00000000600d7
:100ff0000478a300040032000578a3000300320047
:101000000168a30001003a000200be000160a000d8
:1010100000000600881f7800030478000300e00049
:1010200007003d0060001000e0801800600119001a
:10103000e081190002003b0001f02d0003003700a1
:101040000400070008f0a70001f0a0004f0478009a
:1010500000000600889fbe008a9fbe0000827000cc
:101060000402710004827100260032000004be00f8
:101070000200be006011b8006b092000950220003c
:101080000182cf000a0039000541b1000082cf0083
:10109000070039000541b1000982cf000400390082
:1010a0000541b1000882cf00010039000541b100bf
:1010b00005425200120032000a003b00828171009a
:1010c000610164008100d1000080d3008984d300d5
:1010d0000884d3008b05e8000442e800f7ff3a00db
:1010e000070037000804440089844c0000004800d1
:1010f000818048008b05e9000442e900f9ff3a00cd
:10110000030007004f05be004f04be0000000600ac
:1011100081002000618055000b003d000b00200085
:1011200061fe2f000100e1001d003400828171008a
:10113000610164008904d1000884d3000000e80044
:10114000faff3a00710020006100640003007000a3
:10115000020060000900320061044400e0844c0099
:101160000988a500050032008b05e8006808e10049
:1011700002003a008904d1000884d300f20f200055
:101180000258e10005003d00c75ddd00f907b2002f
:101190008980750008007800000006000bf8270021
:0811a0008b007800000005003f
:020000040000fa
:1011a800783a0000083a000056610000afba000023
:1011b80073860000bcbb000065160000403b0000c1
:1011c800fe9a0000b93c0000cd490000463b0000f3
:1011d8005e0f00007dbd00009fb8000026bd000026
:1011e8004cd200002d3e0000c7460000d23e000051
:1011f800c7460000d23e00004cd200002d3e000041
:101208009fb8000026bd00005e0f00007dbd0000f5
:10121800cd490000463b0000fe9a0000b93c0000a2
:1012280065160000403b000073860000bcbb000050
:1012380056610000afba0000783a0000083a000092
:101248000000000000000000000000000000000096
:101258000000000000000000000000000000000086
:101268000000000000000000000000000000000076
:101278000000000000000000000000000000000066
:101288000000000000000000000000000000000056
:101298000000000000000000000000000000000046
:1012a8000000000000000000000000000000000036
:1012b8000000000000000000000000000000000026
:1012c8000000000000000000fa55000052b90000bc
:1012d800a17b0000b9ba0000bdd50000b23b0000f8
:1012e80039890000b4bb00002796000006bc000046
:1012f80055600000023d000088cb000011bd0000d1
:101308004dde000095bc00005cac0000083e00000b
:101318004c68000083be000043c200009e3e0000ef
:101328004c68000083be00005cac0000083e000072
:101338004dde000095bc000088cb000011bd000008
:1013480055600000023d00002796000006bc000022
:1013580039890000b4bb0000bdd50000b23b0000d5
:10136800a17b0000b9ba0000fa55000052b900008c
:101378000000000000000000000000000000000065
:101388000000000000000000000000000000000055
:101398000000000000000000000000000000000045
:1013a8000000000000000000000000000000000035
:1013b8000000000000000000000000000000000025
:1013c8000000000000000000000000000000000015
:1013d8000000000000000000000000000000000005
:1013e80000000000000000000000000000000000f5
:1013f8002a170000f9ba0000b8da00007f3b0000a5
:1014080046a60000c03b0000468900008aa30000f1
:10141800b4140000783b0000930f0000a23c0000c9
:1014280067560000913c00001f48000074bb000094
:10143800c70a0000202400008e7b0000c23c000088
:101448006b0500009ba40000619a00006bbd0000c2
:101458003c70000048bd00006c910000642300004f
:10146800c8e200007bbd00006163000042be0000ce
:10147800579d0000e8bd0000da7a0000533e0000e6
:1014880043580000cc3e0000da7a0000533e0000ca
:10149800579d0000e8bd00006163000042be0000e7
:1014a800c8e200007bbd00006c91000064230000ce
:1014b8003c70000048bd0000619a00006bbd000050
:1014c8006b0500009ba400008e7b0000c23c00005e
:1014d800c70a0000202400001f48000074bb000059
:1014e80067560000913c0000930f0000a23c0000ea
:1014f800b4140000783b0000468900008aa300006d
:1015080046a60000c03b0000b8da00007f3b0000a0
:101518002a170000f9ba00003efa000007a30000ed
:1015280056c80000a93b00009eaf00001a3c00000e
:1015380048f20000fa3b0000ae0b00000da30000cb
:101548000b300000ccbb00004c37000086bb00000d
:1015580085b800002f3b00008a420000eea300007f
:1015680029e50000acbc0000840e000043bd00006b
:101578003b2b000044bd0000f8d70000dca40000ad
:1015880031400000a03d000065fb0000053e000062
:101598009bca0000d63d0000fd190000f9a3000019
:1015a80089bb0000f6bd0000cc250000513f0000bb
:1015b80089bb0000f6bd0000fd190000f9a300007a
:1015c8009bca0000d63d000065fb0000053e0000f8
:1015d80031400000a03d0000f8d70000dca4000066
:1015e8003b2b000044bd0000840e000043bd0000fa
:1015f80029e50000acbc00008a420000eea3000010
:1016080085b800002f3b00004c37000086bb000067
:101618000b300000ccbb0000ae0b00000da3000097
:1016280048f20000fa3b00009eaf00001a3c0000a0
:1016380056c80000a93b00003efa000007a30000be
:020000040000fa
:101648000400fa00000f7800110798009e00780047
:1016580061418800604180009e0090000108780088
:101668004382a9004362a9004342a9004322a8007b
:101678004302a80042c2a90042a2a80042e2a9006f
:101688001112800030fe2f00008060008001b3003e
:101698001012880011128000c0ff2f000080600027
:1016a8000010a0001012880045e2a9002c43a800f1
:1016b800c642a900ca42a80041a2a9000080fa00b7
:1016c800000006000200fa00000f78009540a8000c
:1016d80041e2a8001e0078008000eb00210098007d
:1016e8001e0078008000eb00110098001e007800b2
:1016f8008000eb00410098001e00780001102000d7
:1017080031009800ca42a8000080fa0000000600d4
:101718000e00fa00889fbe008a9fbe008c9fbe0004
:10172800200798003207980043079800510798004f
:10173800640798002e0090001000780010079800a9
:101748001e00900021c0b300014878001e009000e0
:101758000002e8003e019000ce0190000000200049
:10176800f10f2000820278000301780080017800e0
:1017780081007800038062008100610081067800a2
:10178800000678000c00be00408dde00cf8dde0024
:101798000a407800004a78001e0090000082e800a5
:1017a8003e019000ce01900000f02f0001002000c3
:1017b80082027800030178008001780081007800b7
:1017c80003806200810061008104780000047800d1
:1017d8000800be004809dd004803de00060371006a
:1017e800c88bde0006407800004a78001e00900092
:1017f80063004000be0090008140780001487800f6
:10180800ee00900000102000808f5000020034008d
:1018180000102000600798001e0090006300400040
:10182800104078000004e000100032001e00900014
:1018380063004000104078000080fb000110200089
:10184800808050006e009000808f500007003d009f
:101858001e00900063004000104078000080fb00ec
:101868000110200000805000600798000000eb0085
:10187800000f7800090037009e007800648040005f
:101888009e00900000804000de0090009e80400096
:1018980091407800014878001e0fe8006e00900023
:1018a8009e0f5000f4ff3e002e0090002000900094
:1018b800800078000120a0002e00900021009800f0
:1018c8006e009000e40040002e0090003100980067
:1018d800ca42a9001e009000104078000080fb005a
:1018e800401288006e0090004f06be004f05be00f3
:1018f8004f04be000080fa00000006000e00fa0047
:10190800889fbe008a9fbe008c9fbe00200798005b
:101918003207980043079800510798006407980019
:101928003e019000ce01900000002000f10f200041
:1019380002027800030178008001780081007800b5
:1019480003006200810061008106780000067800cb
:101958000c00be00408dde00cf8dde000a4f7800ff
:101968003e019000ce01900000f02f000100200001
:101978000202780003017800800178008100780075
:10198800030062008100610081047800000478008f
:101998000800be004809dd004803de0006037100a8
:1019a800c88bde00164798003e009000204798003c
:1019b800ee00900000102000808f500004003400da
:1019c8002e0090000110200031009800030037001d
:1019d8002e009000ee00900031009800de0090008c
:1019e8002e009000510098002e0090008000eb001f
:1019f80041009800ca42a900300020004012880027
:101a0800000000002e00900020009000610060009f
:101a18000000e000fbff32002e0090002000900044
:101a2800800078000100a1002e009000210098009d
:101a38001e00fb0040128800000000002e009000ed
:101a480020009000610060000000e000fbff320011
:101a58002e00900020009000800078000100a10076
:101a68002e009000210098001e4090000000fb000e
:101a780040128800000000002e0090002000900016
:101a8800610060000000e000fbff32002e009000c3
:101a980020009000800078000100a1002e00900036
:101aa800210098002e4090000000fb0040128800a2
:101ab800000000002e0090002000900061006000ef
:101ac8000000e000fbff32002e0090002000900094
:101ad800800078000100a1002e00900021009800ed
:101ae8004822ef002e00900020009000800078002f
:101af8000110a0002e009000210098004f06be00a3
:101b08004f05be004f04be000080fa00000006002a
:101b18000200fa00000f78001e00780020009000f4
:101b2800640060000000e0000200320010002000a5
:101b3800270037001e007800200090006200600037
:101b48000000e000020032001000200020003700f2
:101b5800ca42a9005000200040128800000000007e
:101b68001e00780020009000610060000000e00086
:101b7800fbff32001e0078002000900080007800f3
:101b88000100a1001e007800210098004822ef0003
:101b9800000000001e007800200090006100600036
:101ba8000000e000fbff32001e00780020009000db
:101bb800800078000100a1001e0078002100980034
:101bc800ca42a8001e007800100090006100600062
:101bd8000080fa00000006000e00fa004007980096
:101be80051079800620798005e009000e10f5000ce
:101bf80011003a00ca42a9002006200040128800bd
:101c0800000000004e00900020009000610060007d
:101c18000000e000fbff32004e0090002000900022
:101c2800800078000100a1004e009000210098007b
:101c3800ca42a800ec0037005e009000e20f500096
:101c48002e003a00ee00900011079800ca42a90041
:101c58005001200040128800000000004e00900053
:101c680020009000610060000000e000fbff3200ef
:101c78004e00900020009000800078000100a10034
:101c88004e009000210098000000eb00000f780043
:101c9800150037004822ef00000000004e009000b9
:101ca80020009000610060000000e000fbff3200af
:101cb8004e00900020009000800078000100a100f4
:101cc8004e009000210098001e0078009e009000b1
:101cd80000804000ce009000910090008140780084
:101ce800014878001e0fe8001e007800e30f50003e
:101cf800e8ff3400ca42a800bb0037005e0090002d
:101d0800e30f500025003a00ee00900021079800ec
:101d1800ca42a900500020004012880000000000bc
:101d28004e00900020009000610060000000e0007c
:101d3800fbff32004e0090002000900080007800e9
:101d48000100a1004e009000210098004822ef00f9
:101d5800000000004e00900020009000610060002c
:101d68000000e000fbff32004e00900020009000d1
:101d7800800078000100a1004e009000210098002a
:101d88004e00900010009000804078002e009000d7
:101d980001487800ca42a800930037005e0090000e
:101da800e40f500011003a00ca42a9006000200068
:101db80040128800000000004e00900020009000b3
:101dc800610060000000e000fbff32004e00900060
:101dd80020009000800078000100a1004e009000d3
:101de80021009800ca42a8007f0037005e009000da
:101df800e60f500011003a00ca42a9004000200036
:101e080040128800000000004e0090002000900062
:101e1800610060000000e000fbff32004e0090000f
:101e280020009000800078000100a1004e00900082
:101e380021009800ca42a8006b0037005e0090009d
:101e4800e70f500045003a00ee0090003107980077
:101e5800ca42a900200520004012880000000000a6
:101e68004e00900020009000610060000000e0003b
:101e7800fbff32004e0090002000900080007800a8
:101e88000100a1004e009000210098003e00900043
:101e98000080e800104078000000fb004012880035
:101ea800000000004e0090002000900061006000db
:101eb8000000e000fbff32004e0090002000900080
:101ec800800078000100a1004e00900021009800d9
:101ed8003e0090000000e800104078000000fb0081
:101ee80040128800000000004e0090002000900082
:101ef800610060000000e000fbff32004e0090002f
:101f080020009000800078000100a1004e009000a1
:101f1800210098003e009000104078000000fb006f
:101f280040128800000000004e0090002000900041
:101f3800610060000000e000fbff32004e009000ee
:101f480020009000800078000100a1004e00900061
:101f580021009800ca42a800230037005e009000c4
:101f6800e50f500020003a00ca42a90010002000e6
:101f780040128800000000004e00900020009000f1
:101f8800610060000000e000fbff32004e0090009e
:101f980020009000800078000100a1004e00900011
:101fa800210098006e009000104078000000fb00af
:101fb80040128800000000004e00900020009000b1
:101fc800610060000000e000fbff32004e0090005e
:101fd80020009000800078000100a1004e009000d1
:101fe80021009800ca42a8000080fa0000000600fc
:101ff8000000fa008540a9006041800020009000a0
:10200800640060000000e0002300320060418000ae
:10201800411280001100980060418000c0009000cb
:102028008100e8004100980060418000c0009000f5
:102038006041800030009000808f500009003d0012
:10204800604180009000780060418000400090006e
:1020580000804000104078000000fb00401288001b
:102068003b0037006041800061418000a100900082
:102078000120a10021009800604180008000eb0051
:1020880031009800604180008000eb00410098001a
:10209800ca42a8002e00370060418000200090004e
:1020a800620060000000e000210032006041800012
:1020b800d000900060418000400090000080400007
:1020c800411280008140780001487800604180001a
:1020d800c00090008100e800410098006041800045
:1020e800c00090006041800030009000808f500058
:1020f80002003d004822ef001500370060418000d3
:1021080061418000a10090000110a1002100980009
:10211800604180008000eb00310098006041800041
:102128008000eb0041009800ca42a8000800370070
:102138006041800061418000a10090000100a00082
:102148002100980060418000411280001100980031
:102158000080fa0000000600e0688800010098008e
:102168000001eb001200980022009800320098004d
:10217800023220008201b3002200b300121288004c
:1021880045e2a90041a2a9008540a9009540a80000
:1021980041e2a8002c43a800c642a900ca42a800f0
:1021a8001e21ef001421ef0002202000d208880031
:1021b8008760a9009760a800e0688000000006001a
:1021c800100390000630a600020037000000eb0064
:1021d800000006000400e00002003c000000eb00e4
:1021e800000006000510200005a0e60004102000ed
:1021f8008002eb00350098002400980080029000cf
:102208008003eb00e1f27b008703e8000402e900a9
:102218000400e000fbff3c000630a00084ff2f0014
:1022280004036300160098004200980053009800c9
:10223800ca42a90064002000441288000700780000
:1022480000000600100390000630a60002003700c8
:102258000000eb00000006000400e00002003c0063
:102268000000eb00000006009540a9004512800020
:10227800ca42a90035002000451288004002ae007d
:10228800feff370045128000431288004002ae006e
:10229800feff3700451280000280fd0042128800d0
:1022a8004002ae00feff3700451280000280fd00ac
:1022b800421288004002ae00feff3700451280003f
:1022c8000003eb008002eb00451288004002ae00dc
:1022d800feff37004712800087707b000603e80086
:1022e80004b0e700f8ff3700ca42a8008540a900fb
:1022f8009540a80004007800000006001003900034
:102308000630a600020037000000eb0000000600bf
:10231800230020000198e7001f0037009540a9001e
:102328004412800003092000ca42a9004312880011
:102338004002ae00feff3700441280008001eb002f
:1023480035002000431288004002ae00feff37002f
:10235800441280008502e9000500e000f9ff3c0016
:1023680045002000431288004002ae00feff3700ff
:1023780044128000045978008502e9000500e00055
:10238800f8ff3c00ca42a8008540a9009540a80073
:102398001000200000000600130020000198e7004c
:1023a800240037009540a9004412800063002000f3
:1023b800ca42a900431288004002ae00feff37005f
:1023c800ca42a80044128000030620000000000052
:1023d80000000000ca42a900431288004002ae0073
:1023e800feff3700ca42a80044128000ca42a90072
:1023f80053002000431288004002ae00feff370061
:10240800441280008001eb00431288004002ae00b5
:10241800feff3700441280000400a700faff3700cf
:10242800ca42a8008540a9009540a80010002000d5
:1024380000000600330020000198e7001300370071
:102448009540a900ca42a900441280005300200008
:10245800431288004002ae00feff3700441280009d
:102468008001eb00431288004002ae00feff3700f7
:102478004412800004497800ca42a8008540a90097
:102488009540a8001000200000000600430020002e
:102498000198e7000d0037009540a900441280001c
:1024a80063002000ca42a900431288004002ae001f
:1024b800feff3700ca42a800441280008540a900e8
:1024c8009540a800100020000000060053002000de
:1024d8000198e700190037009540a90044128000d0
:1024e80003052000ca42a900431288004002ae003a
:1024f800feff3700ca42a8004412800013002000e3
:10250800ca42a900431288004002ae00feff37000d
:102518004412800092017800431288004002ae0005
:10252800feff3700ca42a800441280008540a90077
:102538009540a8001000200000000600930020002d
:102548000198e700370037009540a9004412800041
:10255800ca42a90063002000431288004002ae006e
:10256800feff3700ca42a80044128000830d2000f5
:102578000000000000000000ca42a90043128800c1
:102588004002ae00feff3700441280009201900026
:10259800431288004002ae00feff3700441280005c
:1025a800920178000380fd00431288004002ae00cb
:1025b800feff3700441280000380fd0043128800ac
:1025c8004002ae00feff370044128000ca42a80055
:1025d8000000000000000000000000005300200080
:1025e800ca42a900431288004002ae00feff37002d
:1025f800441280008001eb00431288004002ae00c4
:10260800feff3700441280000400a700faff3700dd
:10261800ca42a8008540a9009540a80010002000e3
:10262800000006000000eb0000000600801f780094
:10263800811f7800821f7800831f7800841f78002c
:102648008540a90044128000e06880009000900056
:10265800678160000200e00007003c00ca42a80051
:102668008100e8001100980023002000ca42a90058
:1026780043128800240037006110e10005003c0087
:102688008100e80011009800d001900043128800f2
:102698001d0037006210e10006003c008100e800e0
:1026a80011009800c00190000380fd0043128800cb
:1026b800150037006310e10005003c008100e800c8
:1026c80011009800c0019000431288000e003700e6
:1026d8006410e1000a003c008100e8001100980045
:1026e8008001900030029000e3417a0020029000bf
:1026f8000402e90024009800431288000200370011
:10270800ca42a8001fe1a8004f027800cf01780054
:102718004f017800cf0078004f00780000000600d5
:10272800801f7800811f7800821f7800831f78003f
:102738008760a9001fe1a9001421ef00e06880006c
:10274800a00090000100e00014003400b0009000e8
:102758008100e80031009800d0019000400190000d
:1027680061014100e0814900810020000198e600f4
:102778008001eb0053009800420098009000900000
:1027880082ff2f008100610011009800ca42a90051
:102798006300200043128800030037009000900077
:1027a8000130a10011009800cf0178004f01780096
:1027b800cf0078004f007800004006000a00fa00b9
:1027c800400798000000eb0030079800a033200075
:1027d80010128800c642a9002c43a800ca42a800cb
:1027e80041e2a800ca42a90000092000401288005e
:1027f8000000000000128000610060000000e0009e
:10280800fcff320040128000000f78004822ef00e1
:102818000000000000128000610060000000e0007d
:10282800fcff320040128000000f78004822ef00c1
:102838000000000000128000610060000000e0005d
:10284800fcff320040128000000f78004822ef00a1
:102858000000000000128000610060000000e0003d
:10286800fcff320040128000000f78004822ef0081
:102878000000000000128000610060000000e0001d
:10288800fcff320040128000100798004822ef0039
:102898000000000000128000610060000000e000fd
:1028a800fcff32004012800020079800ca42a800ae
:1028b8008540a9009e009000f00b2000808f5000fa
:1028c8000c003a001000200040418800ce00900023
:1028d80000d1200020fe07003041880030418000f0
:1028e800e6004700010178005100200083fe070040
:1028f800060037002828ef0080418000ce009000b5
:102908004ffb0700804180006efb07000080fa0043
:10291800000006000000fa0040418000e10f50006e
:1029280008003a0000000000304180000001eb0080
:102938001100200071fe07000000e000faff3200dd
:102948000d003700804180000001eb0041002000ad
:10295800a1fc0700804180000001eb00110020006d
:102968009dfc0700000000008041800068fc070013
:102978000000e000fcff3a000080fa0000000600ba
:102988000400fa00008fbe0040418000e10f5000b3
:1029980005003a00304180000e01780091002000c7
:1029a80056fe07000d003700804180000001eb0053
:1029b8004100200088fc0700804180000e0178005b
:1029c8007100200084fc07000000000080418000a6
:1029d8004ffc07000000e000fcff3a000080fa000e
:1029e800000006000a00fa00100798002107980066
:1029f80032079800430798000000eb00000f7800aa
:102a080040418000e10f50002d003a000f003700d0
:102a18004e0090001e0250001e007800be0090007c
:102a2800808240001e0078006101b9001e009000fd
:102a3800ae009000020140008381480030418000d0
:102a480085007800defd07001e0f40004e00900054
:102a58009e007800808f5000edff35001c00370085
:102a6800000000008041800029fc07000000e00011
:102a7800fcff3a00804180000001eb00410020008b
:102a880055fc07004e0090001e0250001e00780002
:102a9800be009000808240001e0078006101b900ed
:102aa8001e009000ae0090000201400083814800a3
:102ab800804180008500780015fb07001e0f40004c
:102ac8004e0090009e007800808f5000e4ff350093
:102ad8004e0090000080fa00000006000a00fa008c
:102ae80010079800210798003207980043079800bc
:102af8000000eb00000f780040418000e10f50001b
:102b080015003a000f0037004e0090001e025000da
:102b18001e007800be009000808240001e007800f1
:102b28006101b9001e009000ae0090000201400053
:102b3800838148003041800085007800c1fd07008e
:102b48001e0f40004e0090009e007800808f5000bd
:102b5800edff3500100037000000000080418000c4
:102b6800ebfb07000000e000fcff3a00804180001a
:102b78004e029000be0090001e019000ae01900031
:102b88005efb07000000000080418000e0fb0700ba
:102b98000000e000fcff3a004e0090000080fa00c0
:102ba800000006007002fa00889fbe008a1f7800a5
:102bb80090022000303a8800213a8000f0f32f007c
:102bc80000806000203a8800213a800000fe2f0033
:102bd80000806000203a88004827ef00120020009b
:102be80080072000a1092000337420008049780064
:102bf8008149780082497800120020006004200092
:102c080071052000237420008049780081497800ec
:102c18008249780000000000113a80000000270077
:102c28008080600000002100808f5000faff3a0089
:102c380000000000113a80000002200000806000bf
:102c48000000e000fbff320075020700f040800042
:102c580001102400eb01070000418000014024001e
:102c6800c500070020bf2000d4fe0700f040800008
:102c78002102070000418000df0007000000eb0090
:102c880030079800300d2000000f9800400d2000fc
:102c9800100f9800400e2000200f9800400e2000d2
:102ca800300f980040012000400f9800500120008c
:102cb800500f980050022000600f9800500220002a
:102cc800700f98000102200081004700428d280003
:102cd80027010900b218780000000000f0408000c9
:102ce800490207000000e000fcff3a00f0408000c5
:102cf800020c200021832000160207003e009000ed
:102d08000000400000004700000890008f00780095
:102d1800010578008000e9004107980000004000a4
:102d28000000e8000000e8000000d100800040003a
:102d38000f007800818747000000e8000000d100fc
:102d480000004000500798000000eb00000f7800da
:102d580007003700de0090001e00780000004000e9
:102d6800008040008000eb00010878001e0fe8009a
:102d78003e0090000000400000004700000890005e
:102d88009e0f5000f3ff3c000000eb00000f78009e
:102d98004a00370011f42f001e8040000000e000b8
:102da80001003d000000eb00600798003e00900025
:102db8000000400000004700400890009e00e80026
:102dc800810f50000100340001007800700798005e
:102dd8001e007800f10b2000810f50000100340024
:102de800f00b2000200798006e0190001207980051
:102df8002d003700de0090001e0078000000400023
:102e080061007800cf80de0068f607000004be008d
:102e18002e009000800040002083200000804000a9
:102e280010007800cf80de0060f607000002be00c8
:102e3800be009000500220000088b9008000780091
:102e48001e009000008040004200dd0001022000ca
:102e58008e804000008040001000be000001be00cf
:102e68000400be0067f707000001be000800be00ae
:102e78007ff607002cf60700800078005e019000be
:102e88001e007800000040000000410001087800a2
:102e98002e0090000000e900200798001e00900016
:102ea8000000e800100798009e0090007e00900047
:102eb800808f5000cfff35001e0fe8003e009000c5
:102ec8000000400000004700000890009e0f5000de
:102ed800b0ff3c000000000000418000bc0007007b
:102ee8000000e000fcff3a003e00900000004000b7
:102ef8000000470000099000de00900000418000bb
:102f080063000700da010700e10f500017003a00dc
:102f18003e0090000000e800300798003e00900056
:102f2800e20f500007003200e30f500008003200a3
:102f3800e10f500009003a00d1c2a900d1a2a800af
:102f48000a003700d1c2a800d1a2a90007003700a3
:102f5800d1c2a900d1a2a90004003700d1c2a8009b
:102f6800d1a2a8000000eb00300798008a0778007b
:102f78000000000059ff37000400fa00000f780035
:102f8800110798009e007800714188001e007800a3
:102f98009e009000010878001e009000012020008b
:102fa800808040001e007800110098001001220067
:102fb800601c880070002000701c88001e007800cb
:102fc8001000780080007800000024000080500085
:102fd800801c880000182000a01c880070002000b9
:102fe800b01c88001021ef000621ef000c21ef0033
:102ff8000080fa00000006000200fa00000f7800c6
:103008001e0078008000eb00210098001e00780068
:103018008000eb00610098001e007800011020007d
:10302800410098001e00780001102000510098000f
:103038001e0078008000eb003100980085c0a900d0
:1030480095c0a8008de3a80000272000600888002c
:1030580080132000000c880080132000100c8800ca
:1030680060002000200c880011e1a8000080fa0010
:10307800000006000200fa00000f780011e1a90024
:1030880095c0a9008de3a9000080fa0000000600a1
:103098000e00fa0040079800510798006207980050
:1030a8004e009000200090000000e0000300320075
:1030b8004e00900010007800020037004e0090008b
:1030c8001000900020079800ee00900000102000eb
:1030d800808f500002003400001020006007980024
:1030e8000000eb00000f78002b0037001e0078006e
:1030f80000004000de0090000080400010007800d2
:103108008000780000002800008040003007980008
:103118003e0090008000eb00022720000289b900e1
:10312800020178006002b9008401780003014100bf
:10313800032720000300b800010141008200780045
:10314800f2ff2f000300200068f507001007980021
:103158009e00900000272000808f5000020036005b
:10316800f0262000100798001e0090000000e000e4
:1031780002003a0010002000100798001e00780096
:1031880000004000ae009000008040009e009000cb
:10319800010878001e0fe8006e0090009e0078007d
:1031a800808f5000d1ff35004e009000ee00900057
:1031b800510098000400fc004e009000110020000f
:1031c800310098000000fc000080fa0000000600b2
:1031d8000200fa00000f78001e007800300090000e
:1031e8000080fa00000006008002780001037800e1
:1031f800820378000700e0001e00340035007800e4
:103208000300280083006000c808de0000f0a70063
:103218000000ea00b3f727000300e10001003900cd
:103228000300780043082000030040000081cf001d
:103238000b003100930020000281510001003b0087
:103248000001eb00e30141000302de00f30020006f
:10325800030262004411dd000202720001027200e2
:103268000480ea00f00fb200005b78008703e900f1
:10327800e2ff3a00000006008002780001037800af
:10328800820378000700e00015003400354078001c
:103298000080ea0003082000830060000307200084
:1032a800030160004411de000281e800f300200001
:1032b80003026000700272000402d0000402e800f9
:1032c8000222dd0043082000030252000170a7001b
:1032d8000402ea00041b78008703e900ebff3a00c8
:1032e800000006008002780001037800820378005d
:1032f8000700e00023003400350078000000e000fb
:1033080002003a00500520001b0037000300280087
:1033180083006000c808de0000f0a7000000ea0093
:10332800f3ff27000300e1000100390003007800e3
:103338000081cf00060031006910e10004003d0063
:103348009300200002815100e30141000200370090
:103358000001eb00430020000302de00f300200020
:10336800030262004411dd000202720001027200d1
:10337800530d200003406a00005b78008703e900d2
:10338800ddff3a00000006008002780001037800a3
:10339800820378000700e000190034000000eb0009
:1033a80035407800530d200000c069000308200054
:1033b8008300600003072000030160004411de0061
:1033c8006f0260004422dd00680042000200e00055
:1033d8000200320003102000030040006110e100e9
:1033e800020034000201e9000200dd000170a700bc
:1033f8000000ea00001b78008703e900e7ff3a00b5
:10340800000006000400fa00000f78001107980079
:103418009e007800514188001e0078009e009000b0
:10342800010878001e009000000cb00080007800b1
:103438001e0078001100980081c3a90081a3a9008b
:103448008183a9008163a900011c8000f0fc2f0082
:1034580000806000001c8800011c8000c0ff2f0055
:10346800008060000010a000001c880083e3a90011
:10347800111c800000f82f0000806000d000b3000d
:10348800101c88001e00780010007800800078006a
:103498000000240000805000201c88001e007800d6
:1034a8001000900080007800000024000080500088
:1034b800301c880000302000401c8800f00b2000e1
:1034c800501c880040742000001988002223ef0057
:1034d80000012000201988002823ef002c03a900f0
:1034e8003023ef000a21ef007038210070088800af
:1034f8000080fa00000006000200fa00000f7800c1
:103508001e0078008000eb00210098001e00780063
:1035180011002000310098008480a9009480a80040
:1035280081e3a80021e3a80013e1a8000080fa00c5
:10353800000006000200fa00000f78009480a9003d
:1035480081e3a90021e3a90013e1a9000080fa00a2
:10355800000006000a00fa002007980031079800ca
:10356800420798002e009000200090000000e00024
:10357800030032002e00900010007800020037008f
:103588002e0090001000900010079800ce009000c8
:10359800000c2000808f500002003400000c200036
:1035a800400798000000eb00000f78000b00370080
:1035b8001e00780000004000be009000808040009f
:1035c8001e007800000040001e019000000041002d
:1035d80010007800800878001e0fe8004e00900068
:1035e8009e007800808f5000f1ff35000400fc0039
:1035f8002e00900011002000310098000000fc000f
:103608000080fa00000006000200fa00000f7800af
:103618001e007800300090000080fa0000000600cc
:103628000000fa00cda2a900cde2a900cdc2a900f0
:10363800d1a2a800d1e2a800d1c2a800d302a80054
:10364800d322a800e402a900e422a900e802a90004
:10365800e822a9002228ef002428ef002ca3a800c4
:10366800c6a2a900caa2a8000080fa0000000600ad
:103678000200fa00a11680000010200000806000ff
:103688000000e00009003a00104180000000e80056
:103698001041880010418000ec0f500006003a00ed
:1036a80010002000000f7800030037002228ef00e8
:1036b8000000eb00000f78001e0078000080fa0080
:1036c800000006000200fa00a11680000020200079
:1036d800008060000000e00009003a0020418000fe
:1036e8000000e8002041880020418000ec0f5000d5
:1036f80006003a0010002000000f78000300370091
:103708002428ef000000eb00000f78001e0078006e
:083718000080fa000000060029
:020000040000fa
:103720002a08000002000000000000002c08000031
:10373000020000000000000032080000d204000077
:103740000000000000410000000300000000000035
:103750000044000000040000000000000008000019
:103760001e000000000000001e0800000400000011
:10377000020000000008f6000c0000002e08000007
:103780000200000000000000220800000400000009
:1037900000000000040d0000180000000000000000
:1037a000300800000200000002000000040d0000cc
:1037b0002608000004000000000000001c0d0000ae
:0c37c000020000000000000000000000fb
:020000040000fa
:0200000401f009
:04000800ffffff00f7
:020000040000fa
:0200000401f009
:04000c00a000000050
:020000040000fa
:0200000401f009
:0400100043000000a9
:020000040000fa
:0200000401f009
:040014005f00000089
:00000001FF
